:020000040800F2
:10000000F0C50020916500086D0300086F0300082B
:1000100073030008770300087B030008000000005A
:100020000000000000000000000000007F03000846
:100030008103000800000000830300088503000816
:10004000AB650008AB650008AB650008AB65000850
:10005000AB650008AB650008AB650008AB65000840
:10006000AB650008AB650008AB650008AB65000830
:10007000AB650008AB650008AB650008AB65000820
:10008000AB650008AB650008AB650008AB65000810
:10009000AB650008AB650008AB650008AB65000800
:1000A000AB650008AB650008AB650008AB650008F0
:1000B000A7CC0008AB650008AB650008AB6500087D
:1000C000AB650008AB650008AB650008AB650008D0
:1000D000AB65000845650008AB650008AB65000826
:1000E000AB650008AB650008AB650008AB650008B0
:1000F000AB650008AB650008AB650008AB650008A0
:10010000AB650008AB650008AB650008AB6500088F
:10011000AB650008AB650008AB650008AB6500087F
:10012000AB650008AB650008AB650008AB6500086F
:1001300000F002F800F06BF80AA090E8000C82448E
:100140008344AAF10107DA4501D100F060F8AFF26B
:10015000090EBAE80F0013F0010F18BFFB1A43F0A5
:1001600001031847E0670100006801000A444FF0EE
:10017000000C10F8013B13F0070408BF10F8014B06
:100180001D1108BF10F8015B641E05D010F8016B4B
:10019000641E01F8016BF9D113F0080F1EBF10F8AF
:1001A000014BAD1C0C1B09D16D1E58BF01F801CBD2
:1001B000FAD505E014F8016B01F8016B6D1EF9D555
:1001C0009142D6D37047000000230024002500266A
:1001D000103A28BF78C1FBD8520728BF30C148BFAA
:1001E0000B607047642911F0D583752911F0D28313
:1001F000782911F00B84632911F01386732911F00B
:100200001886002070471FB51FBD10B510BD11F036
:100210002BFE1146FFF7F7FF00F008F811F049FE3A
:1002200003B4FFF7F2FF03BC06F032F90025002407
:10023000002606F0BFF806F025F94FF4165006F038
:1002400035F906F08BF8002008F069FB05F0DCFCBE
:100250000BF006FE2548016800200AF061F82348EB
:10026000416801200AF05CF84FF47840204908808A
:100270003BE0002006F08CF81EA011F019FB05F001
:1002800044FE20A011F014FB05F0A0FD21A011F008
:100290000FFB24A011F00CFB26E02C48008810F482
:1002A000004F21D029480578002403E02848065D46
:1002B000601CC4B2AC42F9DB002024490880612EE6
:1002C00004D0622E05D06C2E09D105E010F078FC28
:1002D00006E011F0B4F803E011F085FA00E000BF89
:1002E00000BF1CA011F0E4FAD7E7C2E7AC01002080
:1002F0001A000020B4E6B4A2C6F7B2E2CAD42E2E89
:100300002E0A0000D5FDCFD2B2A8B2E2CAD42E2E5A
:100310002E0A00003C3C574156C2BCD2F4BBFA3E08
:100320003E0A0000CAE4C8EB61D2D4BDF8C8EBD2E3
:10033000F4C0D6B2A5B7C5A3ACCAE4C8EB62BDF899
:10034000C8EBC2BCD2F4BBFA0A0000002C000020AB
:1003500022140020613AD2F4C0D60A623AC2BCD25A
:10036000F4BBFA0A6C3AC9BEB3FD0A00704700BF7D
:10037000FEE700BFFEE700BFFEE700BFFEE77047F5
:1003800070477047704700000CB500200190009046
:100390006B48006840F480306949086000BF6848D5
:1003A000006800F4003000900198401C0190009813
:1003B00018B90198B0F5A06FF1D16148006810F448
:1003C000003F02D00120009001E000200090009842
:1003D000012842D15B48006840F01000594908608C
:1003E0000846006820F0030008600846006840F0F6
:1003F0000200086052484068514948600846406819
:1004000048600846406840F480604860084640689C
:1004100020F47C1048600846406840F4E8104860CA
:100420000846006840F08070086000BF44480068DB
:1004300010F0007FFAD04248406820F003004049A5
:1004400048600846406840F00200486000BF3C48F1
:10045000406800F00C000828F9D10CBD10B5FFF77A
:1004600093FF10BD10B53648006840F001003449D4
:1004700008600846406834490840314948600846E9
:100480000068324908402E4908600846006820F498
:10049000802008600846406820F4FE0048604FF461
:1004A0001F008860FFF7DAFF4FF0006028490860FE
:1004B00010BD10B5002100200022214B5B6803F025
:1004C0000C0121B1042906D0082928D107E0214BCD
:1004D000214C236027E01F4B1F4C236023E0184B67
:1004E0005B6803F47010164B5B6803F480320223E0
:1004F00003EB904022B9194B4343174C23600DE0A6
:100500000F4B5B6813F4003F04D0144B4343124C71
:10051000236003E00F4B43430F4C236003E00D4B7C
:100520000D4C236000BF00BF054B5B68C3F3031392
:100530000B4CE15C084B1B68CB40074C236010BDA3
:1005400000100240002002400000FFF8FFFFF6FE0E
:1005500008ED00E000127A000000002000093D00D4
:100560000400002008B50121442006F0C1FE1C2033
:10057000ADF8000048208DF803006946354806F0C4
:1005800001FC0120ADF8000028208DF80300694629
:10059000314806F0F7FB08BD10B5044614B1012040
:1005A0002E4908702D480078002837D0102129489E
:1005B00006F079FC78B10821264806F074FC50B1A9
:1005C0000421244806F06FFC28B10121224806F0DE
:1005D0006AFC012822D10A2005F028FF00201F49CB
:1005E000087010211B4806F05EFC08B9012010BD00
:1005F0000821184806F057FC08B90220F7E7042143
:10060000144806F050FC08B90320F0E70121124815
:1006100006F049FC01281BD10420E8E710210D4811
:1006200006F041FC012813D108210A4806F03BFCE2
:1006300001280DD10421074806F035FC012807D117
:100640000121054806F02FFC10B90120034908706C
:100650000020CCE7001801400008014014000020F1
:1006600008B50121042006F043FE0220ADF8000089
:1006700010208DF8030003208DF80200694687489A
:1006800006F080FB0221854806F029FC052005F0D4
:10069000CDFE0021824807F0DDFE0521804807F0ED
:1006A0001FFF04208DF8030069467C4806F06AFBB2
:1006B00008BD10B5FFF7D4FF0AE0794807F0EDFE5A
:1006C0004FF60B61884203DD754807F0E6FE10BD6A
:1006D0000421734807F0E7FE0028EED0704807F0C9
:1006E000D2FEF4E730B587B005460C46012108205C
:1006F00006F00BFE0121042006F0FAFD0220ADF801
:10070000180003208DF81A0004208DF81B0006A99C
:10071000624806F037FBADF81050ADF80C400020F1
:10072000ADF81200ADF80E0003A95D4807F0A2F87D
:100730000420ADF800000020ADF802000120ADF863
:1007400004000020ADF806000320ADF8080069465B
:10075000534807F022FB0121514807F0E7FB07B09F
:1007600030BDF0B585B04F4800684F49B0FBF1F09F
:10077000401E87B239464FF6FF70FFF7B3FF0024E3
:1007800008E0FFF796FF2DF814000A2005F04EFE52
:10079000601CC4B20A2CF4DB002416E0601CC5B255
:1007A0000FE03DF814003DF81510884207DD3DF8D4
:1007B00014603DF815002DF814002DF81560681C24
:1007C000C5B20A2DEDDB601CC4B2092CE6DB0026A5
:1007D000022405E03DF81400304486B2601CC4B227
:1007E000082CF7DB062096FBF0F03049088008461D
:1007F00001882FA011F05CF82C480088B0F5004F5C
:1008000002DB012005B0F0BD0020FBE770B5064615
:100810000024002505E0FFF74CFF0446AC4200DD54
:1008200025463000A6F10101CEB2F4D1284670BDB4
:100830002DE9F0410546002603271DB106270020BB
:10084000214908703846FFF7E1FF04461748008841
:100850005030844210DD3846FFF7D8FF04461A486E
:10086000007828B9114800885030844200DD012604
:1008700005201549087006E013480078022802DDBB
:100880000220114908701048007820B10E48007805
:10089000401E0D4908703046BDE8F0810008014057
:1008A000000C00400000002040420F001600002015
:1008B000747061645F64656661756C745F76616CA9
:1008C0003A25640D0A00000018000020FE49088047
:1008D0007047FD49891C08807047FB48801C0088D0
:1008E0007047F94A1080921C1180704710B5044679
:1008F0002046FFF7EBFF052005F075FDFFF7EDFF44
:1009000010BDF2480089F04908807047EE49891C03
:100910000880704730B5014601F01F04C1F345134C
:10092000CA0AE50205EB43151544A8B230BD00BF65
:100930000100A0F10102D0B2FAD1704710B5034610
:100940000C46E2488088A0F51341413905D0DF48C4
:100950008088A0F5A641103914D1DC494889FFF7F9
:10096000B5FF1812FFF7B5FFD8B2FFF7B2FFD749AE
:100970008889FFF7ABFF2012FFF7ABFFE0B2FFF76C
:10098000A8FF5DE0D1488088A0F5D04104391DD191
:10099000CE488079012804D1CC480088401EC01A76
:1009A00083B2CA494889FFF791FF1812FFF791FFF8
:1009B000D8B2FFF78EFFC5498889FFF787FF20125D
:1009C000FFF787FFE0B2FFF784FF39E0BF48808878
:1009D000A0F5AA41103920D1BC494889FFF776FF1C
:1009E0001812FFF776FFB9494989491C88B2FFF709
:1009F0006DFFD8B2FFF76DFFB4498889FFF766FF36
:100A00002012FFF766FFB1498989491C88B2FFF7B8
:100A10005DFFE0B2FFF75DFF12E0AC48807901288E
:100A200004D1AA480088401EC01A83B2A749488949
:100A30001946FFF756FFA54988892146FFF751FF60
:100A400010BD2DE9F04105460E4600240027A046C2
:100A50009E480088A84203DD9C484088B04202DCE2
:100A60000020BDE8F08131462846FFF767FF974830
:100A70008088A0F5134141390BD094488088A0F5B7
:100A8000D041043905D091488088A0F5A64110399D
:100A900003D12E20FFF71AFF0DE08C488088A0F5C7
:100AA000AA41103904D14FF43850FFF70FFF02E08C
:100AB0002220FFF70BFF85488088A0F513412039DD
:100AC00002D10220FFF733FF7F48801C008800B16D
:100AD00000240220FFF72BFF7B48801C04887B4802
:100AE0008088A0F5134141390BD078488088A0F563
:100AF000A641103905D075488088A0F5AA41103963
:100B00000CD10220FFF713FF6F48801CB0F8008063
:100B1000E7B24FF6FF7000EA072708E06B488088CD
:100B2000A0F5D041043902D16748801C0488674889
:100B30008088A0F51341253917D064488088A0F536
:100B40008A41353911D061488088A0F58A41313910
:100B50000BD05E488088A0F50941893905D05B48F3
:100B60008088A0F53541053901D1204679E75748FD
:100B70008088A0F5134141390BD054488088A0F5F6
:100B8000A641103905D051488088A0F5AA411039F6
:100B900007D1E012C002B91240EA411040EAE82051
:100BA0005FE72046FFF7B6FE5BE700B54748808861
:100BB000A0F5134141390BD044488088A0F5D041BD
:100BC000043905D041488088A0F5A641103903D1E9
:100BD0002920FFF77BFE0FE03C488088A0F5AA4162
:100BE000103904D14FF42450FFF770FE04E040F2B6
:100BF00073110720FFF775FE00BD00B533488088EC
:100C0000A0F5134141390BD030488088A0F5D04180
:100C1000043905D02D488088A0F5A641103903D1AC
:100C20002820FFF753FE0EE028488088A0F5AA414F
:100C3000103904D14FF42050FFF748FE03E00021A3
:100C40000720FFF74EFE00BDF0B505460024002743
:100C50001E48807901281ED11C488088A0F5D0410B
:100C6000043918D0082D15D2DFE805F00406080A6B
:100C70000C0E101206250DE007250BE0042509E0F7
:100C8000052507E0012505E0002503E0032501E037
:100C9000022500BF00BF0D488088A0F513414139EF
:100CA00011D00A488088A0F5D04104390BD00748FC
:100CB0008088A0F5A641103905D004488088A0F5A9
:100CC000AA4110397ED103E0FE07006C1404002015
:100CD000082D1CD2DFE805F00406090C0F121518C8
:100CE00000BF14E044F0800411E044F040040EE042
:100CF00044F0C0040BE044F0200408E044F0600439
:100D000005E044F0A00402E044F0E00400BF00BFAE
:100D1000FC488088A0F5AA41103902D14FF45857F9
:100D200000E03627F7488088A0F5A641103907D0A3
:100D3000F4488088A0F5AA41103901D044F0080495
:100D4000F0488088A0F5D041043901D144F0020474
:100D500021463846FFF7C5FD14F0200F03D1E948BE
:100D6000807901280DD1E7480088E6494988884202
:100D700014DAE44806884088E2490880084646803C
:100D80000CE0E0480088DF494988884206DDDD48FC
:100D900006884088DB49088008464680D948808814
:100DA000A0F5AA41103954D1D6494889FFF78EFDE4
:100DB0000020FFF78EFDD3494989491C88B2FFF70F
:100DC00085FD00E074E00020FFF783FDCD494989EF
:100DD000891C88B2FFF77AFDCA490988491EC1F308
:100DE0000F20FFF776FDC7494989C91C88B2FFF774
:100DF0006DFDC4490978491EC8B2FFF76AFDC149B3
:100E00008889FFF763FD0020FFF763FDBD498989ED
:100E1000491C88B2FFF75AFD0020FFF75AFDB94977
:100E20008989891C88B2FFF751FDB6494988491E56
:100E3000C1F30F20FFF74DFDB2498989C91C88B263
:100E4000FFF744FDAF498978491EC8B2FFF741FD5D
:100E500060E0AC494889FFF739FD0020FFF739FD14
:100E60000020FFF736FDA7490988491EC1F30F206E
:100E7000FFF72FFDA3490978491EC8B2FFF729FDE6
:100E8000A0498889FFF722FD0020FFF722FD0020FE
:100E9000FFF71FFD9B494988491EC1F30F20FFF74B
:100EA00018FD98498978491EC8B2FFF712FD31E054
:100EB000082D1CD2DFE805F004070A0D0F121518E3
:100EC00044F0300413E044F0100410E044F0200437
:100ED0000DE000BF0BE044F0380408E044F02804C3
:100EE00005E044F0180402E044F0080400BF00BF2D
:100EF00084488088A0F50941893904D1112746F238
:100F00004000044302E0032744F48054214638465D
:100F1000FFF7E7FCF0BD30B504460D4629462046F4
:100F2000FFF70CFDFFF7EDFC774800887749088054
:100F300030BD30B503460C46154672488088A0F592
:100F40001341413905D06F488088A0F5A64110397A
:100F500014D16C494889FFF7B9FC1812FFF7B9FCA6
:100F6000D8B2FFF7B6FC67498889FFF7AFFC2012BB
:100F7000FFF7AFFCE0B2FFF7ACFC5DE061488088B2
:100F8000A0F5AA41103920D15E494889FFF79EFC9F
:100F90001812FFF79EFC5B494989491C88B2FFF78C
:100FA00095FCD8B2FFF795FC56498889FFF78EFC6F
:100FB0002012FFF78EFC53498989491C88B2FFF73C
:100FC00085FCE0B2FFF785FC36E04E488088A0F54E
:100FD000D04104391DD14B488079012804D14948BA
:100FE0000088401EC01A83B246494889FFF76EFC4C
:100FF0001812FFF76EFCD8B2FFF76BFC41498889E5
:10100000FFF764FC2012FFF764FCE0B2FFF761FC1D
:1010100012E03C488079012804D13A480088401EFB
:10102000C01A83B2374948891946FFF75AFC354937
:1010300088892146FFF755FC324800893349891ECB
:101040000880881C058030BD10B50446002C67D18F
:101050002C498871F02008804FF4A0704880084621
:101060008088A0F5134141390BD026488088A0F52F
:10107000D041043905D023488088A0F5A641103915
:101080001AD12C201F4908812A2048812B208881D1
:1010900008468088A0F5D041043905D019488088D9
:1010A000A0F5A641103906D14FF4A070154908806B
:1010B0004FF4F07048809CE012488088A0F5094108
:1010C000893907D122200F4908814E2048814F20BD
:1010D00088818EE00B488088A0F5AA41103917D18D
:1010E0004FF43050074908814FF4285048814FF49D
:1010F0002C5088814FF4F07008804FF4487048807D
:1011000077E00DE0140400201A0000200008006CB5
:101110002220FE490881202048812120888168E022
:101120000120FA4988714FF4A0700880F0204880AF
:1011300008468088A0F51341413905D0F3488088DE
:10114000A0F5A641103907D12C20F04908812A20AA
:1011500048812B20888139E0EC488088A0F5D04177
:10116000043907D12C20E94908812B2048812A2005
:1011700088812BE0E5488088A0F50941893907D1AD
:101180002220E24908814F2048814E2088811DE0BD
:10119000DE488088A0F5AA41103910D14FF43050B4
:1011A000DA4908814FF4285048814FF42C50888147
:1011B0004FF4487008804FF4F070488006E0222019
:1011C000D24908812120488120208881CF48808809
:1011D000A0F5D041043905D0CC488088A0F5A641BF
:1011E000103906D14FF4F070C84908804FF4A07050
:1011F00048800020FFF728FD10BD2DE9FF4F044671
:101200000D4616461F46A019401E86B2E819401E1C
:1012100087B2BE488088A0F5134141390BD0BB4846
:101220008088A0F5A641103905D0B8488088A0F57F
:10123000D041043920D1B5494889FFF747FB201236
:10124000FFF747FBE0B2FFF744FB3012FFF741FB2B
:10125000F0B2FFF73EFBAD498889FFF737FB281254
:10126000FFF737FBE8B2FFF734FB3812FFF731FB2B
:10127000F8B2FFF72EFB90E0A4488088A0F5AA41C1
:10128000103944D1A1494889FFF720FB2012FFF70C
:1012900020FB9E494989491C88B2FFF717FBE0B241
:1012A000FFF717FB99494989891C88B2FFF70EFBA4
:1012B0003012FFF70EFB95494989C91C88B2FFF728
:1012C00005FBF0B2FFF705FB90498889FFF7FEFAAE
:1012D0002812FFF7FEFA8D498989491C88B2FFF769
:1012E000F5FAE8B2FFF7F5FA88498989891C88B2CE
:1012F000FFF7ECFA3812FFF7ECFA84498989C91C28
:1013000088B2FFF7E3FAF8B2FFF7E3FA45E07F4867
:10131000807901280ED1A846B9467C480088801BF8
:10132000401E80B2019079480088001B401E80B2A8
:10133000009003E0A046B14601950097734880886D
:10134000A0F5094189390CD14FF0440AD34648EA47
:1013500009201FFA80F8C1464520039046200290DC
:1013600007E04FF0500A4FF0510B522003905320EA
:10137000029041465046FFF7B4FA49465846FFF7F7
:10138000B0FA01990398FFF7ACFA00990298FFF7B9
:10139000A8FA29462046FFF7D1FABDE8FF8F70B5BD
:1013A00004460026594805884088454357488088A8
:1013B000A0F5D041043916D154488079012812D1C2
:1013C0000020524988712A2048812B2088810021E1
:1013D0000846FFF7B3FA01204C4988712B20488159
:1013E0002A20888103E000210846FFF7A7FAFFF7CB
:1013F00088FA002602E046480480761CAE42FAD302
:1014000070BD00B59FB00121080205F064FF012105
:1014100040F2691005F06CFF0120ADF87800102053
:101420008DF87B0003208DF87A001EA9394805F05D
:10143000A9FC4CF23370ADF8780018208DF87B00D1
:1014400003208DF87A001EA9334805F09BFC4FF667
:101450008070ADF8780018208DF87B0003208DF89F
:101460007A001EA92D4805F08DFC41F20100ADF86F
:10147000780018208DF87B0003208DF87A001EA9D3
:10148000274805F07FFC01200890002009900F20DC
:101490000A9000200B900C900D900E9001900290FD
:1014A00003200390002004900590069007900620EA
:1014B0000F90002010901190102012900020139097
:1014C00015901490169017904FF4805018900020AB
:1014D00019904FF480401A9000201B9008A81C908F
:1014E00001A81D900FA805F030F90121062005F094
:1014F0008DFA322004F09AFF01210020FFF7F1F964
:10150000322004F093FF00200CE0000014040020BF
:101510000008006C000C014000140140001801405C
:1015200000200140FFF7E2F9FE49888008468088E4
:10153000FF280ADB08468088A0F57F41FF3904D0E8
:10154000F8488088B0F5134F7ED1D320FFF7BEF95D
:10155000FFF7C3F9FFF7C1F9FFF7BFF9F149888039
:10156000084680884FF6FF7101EA0020ED49888027
:10157000FFF7B3F9EB4989880843EA4988800846B0
:101580008088A0F5134141396CD0BF20FFF79EF948
:10159000FFF7A3F9FFF7A1F9FFF79FF9FFF79DF90F
:1015A000E0498880084680884FF6FF7101EA0020F4
:1015B000DC498880FFF791F9DA4989880843D949DD
:1015C000888008468088A0F5D04104394AD0D420CC
:1015D000FFF77CF9FFF781F9FFF77FF9FFF77DF956
:1015E000D0498880084680884FF6FF7101EA0020C4
:1015F000CC498880FFF771F9CA4989880843C949ED
:10160000888008468088A0F5A64110392AD04FF47A
:101610005A40FFF75BF9FFF760F94FF45B40FFF7C3
:1016200055F9FFF75AF9BF498880084680884FF678
:10163000FF7101EA0020BB4988804FF45C40FFF74E
:1016400045F9FFF74AF900E00CE0B64989880843FC
:10165000B449888008468088B0F5004F02D145F231
:1016600010508880AF488188AFA010F021F9AD48B4
:101670008088A0F5134141397ED1CF20FFF726F9AC
:101680000020FFF726F9C120FFF723F93020FFF7EC
:1016900020F9ED20FFF71AF96420FFF71AF903206B
:1016A000FFF717F91220FFF714F98120FFF711F95E
:1016B000E820FFF70BF98520FFF70BF91020FFF763
:1016C00008F97A20FFF705F9CB20FFF7FFF839205A
:1016D000FFF7FFF82C20FFF7FCF80020FFF7F9F8E0
:1016E0003420FFF7F6F80220FFF7F3F8F720FFF7B2
:1016F000EDF82020FFF7EDF8EA20FFF7E7F80020EB
:10170000FFF7E7F80020FFF7E4F8C020FFF7DEF866
:101710001B20FFF7DEF8C120FFF7D8F80120FFF704
:10172000D8F8C520FFF7D2F83020FFF7D2F83020E4
:10173000FFF7CFF8C720FFF7C9F8B720FFF7C9F8C0
:101740003620FFF7C3F84820FFF7C3F83A20FFF729
:10175000BDF85520FFF7BDF8B120FFF7B7F800201E
:10176000FFF7B7F81A20FFF7B4F8B620FFF7AEF886
:101770000A20FFF7AEF800E097E0A220FFF7A9F8F3
:10178000F220FFF7A3F80020FFF7A3F82620FFF7C9
:101790009DF80120FFF79DF8E020FFF797F80F2054
:1017A000FFF797F82A20FFF794F82820FFF791F821
:1017B0000820FFF78EF80E20FFF78BF80820FFF7C0
:1017C00088F85420FFF785F8A920FFF782F8432016
:1017D000FFF77FF80A20FFF77CF80F20FFF779F872
:1017E0000020FFF776F80020FFF773F80020FFF7DE
:1017F00070F80020FFF76DF8E120FFF767F8002090
:10180000FFF767F81520FFF764F81720FFF761F876
:101810000720FFF75EF81120FFF75BF80620FFF7BF
:1018200058F82B20FFF755F85620FFF752F83C20C8
:10183000FFF74FF80520FFF74CF81020FFF749F8A5
:101840000F20FFF746F83F20FFF743F83F20FFF750
:1018500040F80F20FFF73DF82B20FFF737F8002066
:10186000FFF737F80020FFF734F80120FFF731F8D1
:101870003F20FFF72EF82A20FFF728F80020FFF777
:1018800028F80020FFF725F80020FFF722F8EF20C6
:10189000FFF71FF81120FFF719F8782004F0C6FDB4
:1018A0002920FFF713F803F025B91E488088A0F51A
:1018B000D04104397ED11120FFF708F8142004F03C
:1018C000B5FDD020FFF702F80720FFF702F842200D
:1018D000FEF7FFFF1D20FEF7FCFFD120FEF7F6FF0D
:1018E0000020FEF7F6FF1A20FEF7F3FF0920FEF7AF
:1018F000F0FFD220FEF7EAFF0120FEF7EAFF2220E8
:10190000FEF7E7FFC020FEF7E1FF1020FEF7E1FF42
:101910003B20FEF7DEFF0020FEF7DBFF0220FEF794
:10192000D8FF09E014040020204C43442049443AE5
:1019300025780D0A000000001120FEF7CAFFC5201F
:10194000FEF7C4FF0320FEF7C4FFC820FEF7BEFF6A
:101950000020FEF7BEFF2520FEF7BBFF2120FEF78B
:10196000B8FF0520FEF7B5FF0020FEF7B2FF0A2002
:10197000FEF7AFFF6520FEF7ACFF2520FEF7A9FFBD
:101980007720FEF7A6FF5020FEF7A3FF0F20FEF7FB
:10199000A0FF0020FEF79DFFF820FEF797FF012033
:1019A000FEF797FFFE20FEF791FF0020FEF791FF64
:1019B000022000E035E0FEF78CFF2020FEF786FFD6
:1019C0003620FEF783FF0820FEF783FF3A20FEF75C
:1019D0007DFF5520FEF77DFF2B20FEF777FF0020CF
:1019E000FEF777FF0020FEF774FF0120FEF771FF7E
:1019F0003F20FEF76EFF2A20FEF768FF0020FEF76B
:101A000068FF0020FEF765FF0120FEF762FFDF2080
:101A1000FEF75FFF782004F009FD2920FEF756FF4E
:101A200041E7FE488088A0F5A641103940F07C8748
:101A3000ED20FEF74BFF0120FEF74BFFFE20FEF7E7
:101A400048FFEE20FEF742FFDE20FEF742FF212096
:101A5000FEF73FFFF120FEF739FF0120FEF739FFC7
:101A6000DF20FEF733FF1020FEF733FFC420FEF720
:101A70002DFF8F20FEF72DFFC620FEF727FF002049
:101A8000FEF727FFE220FEF724FFE220FEF721FF0A
:101A9000E220FEF71EFFBF20FEF718FFAA20FEF788
:101AA00018FFB020FEF712FF0D20FEF712FF0020F6
:101AB000FEF70FFF0D20FEF70CFF0020FEF709FFD9
:101AC0001120FEF706FF0020FEF703FF1920FEF7A6
:101AD00000FF0020FEF7FDFE2120FEF7FAFE0020A9
:101AE000FEF7F7FE2D20FEF7F4FE0020FEF7F1FED4
:101AF0003D20FEF7EEFE0020FEF7EBFE5D20FEF738
:101B0000E8FE0020FEF7E5FE5D20FEF7E2FE002085
:101B1000FEF7DFFEB120FEF7D9FE8020FEF7D9FEEA
:101B20000020FEF7D6FE8B20FEF7D3FE0020FEF746
:101B3000D0FE9620FEF7CDFE0020FEF7CAFEB220B2
:101B4000FEF7C4FE0020FEF7C4FE0020FEF7C1FE33
:101B50000220FEF7BEFE0020FEF7BBFE0320FEF7CC
:101B6000B8FE0020FEF7B5FEB320FEF7AFFE002062
:101B7000FEF7AFFE0020FEF7ACFE0020FEF7A9FE48
:101B80000020FEF7A6FE0020FEF7A3FE0020FEF7D1
:101B9000A0FE0020FEF79DFE0020FEF79AFE00202A
:101BA000FEF797FE0020FEF794FE0020FEF791FE60
:101BB0000020FEF78EFE0020FEF78BFE0020FEF7D1
:101BC00088FE0020FEF785FE0020FEF782FE002042
:101BD000FEF77FFE0020FEF77CFE0020FEF779FE78
:101BE0000020FEF776FE0020FEF773FE0020FEF7D1
:101BF00070FE0020FEF76DFE0020FEF76AFEB420A6
:101C0000FEF764FE8B20FEF764FE0020FEF761FE07
:101C10009620FEF75EFE0020FEF75BFEA120FEF799
:101C200058FE0020FEF755FEB520FEF74FFE0220BD
:101C3000FEF74FFE0020FEF74CFE0320FEF749FEA4
:101C40000020FEF746FE0420FEF743FE0020FEF7CC
:101C500040FEB620FEF73AFE0020FEF73AFE0020D6
:101C6000FEF737FEB720FEF731FE0020FEF731FE0B
:101C70000020FEF72EFE3F20FEF72BFE0020FEF791
:101C800028FE5E20FEF725FE0020FEF722FE6420DF
:101C9000FEF71FFE0020FEF71CFE8C20FEF719FE4B
:101CA0000020FEF716FEAC20FEF713FE0020FEF724
:101CB00010FEDC20FEF70DFE0020FEF70AFE70206D
:101CC000FEF707FE0020FEF704FE9020FEF701FE5F
:101CD0000020FEF7FEFDEB20FEF7FBFD0020FEF7E7
:101CE000F8FDDC20FEF7F5FD0020FEF7F2FDB82040
:101CF000FEF7ECFD0020FEF7ECFD0020FEF7E9FD0D
:101D00000020FEF7E6FD0020FEF7E3FD0020FEF7D1
:101D1000E0FD0020FEF7DDFD0020FEF7DAFD0020EB
:101D2000FEF7D7FDBA20FEF7D1FD2420FEF7D1FD46
:101D30000020FEF7CEFD0020FEF7CBFD0020FEF7D1
:101D4000C8FDC120FEF7C2FD2020FEF7C2FD002025
:101D5000FEF7BFFD5420FEF7BCFD0020FEF7B9FDE5
:101D6000FF20FEF7B6FD0020FEF7B3FDC220FEF710
:101D7000ADFD0A20FEF7ADFD0020FEF7AAFD042010
:101D8000FEF7A7FD0020FEF7A4FDC320FEF79EFD91
:101D90003C20FEF79EFD0020FEF79BFD3A20FEF75B
:101DA00098FD0020FEF795FD3920FEF792FD0020FA
:101DB000FEF78FFD3720FEF78CFD0020FEF789FD32
:101DC0003C20FEF786FD0020FEF783FD3620FEF75F
:101DD00080FD0020FEF77DFD3220FEF77AFD002019
:101DE000FEF777FD2F20FEF774FD0020FEF771FD52
:101DF0002C20FEF76EFD0020FEF76BFD2920FEF77C
:101E000068FD0020FEF765FD2620FEF762FD00203C
:101E1000FEF75FFD2420FEF75CFD01E014040020C6
:101E20000020FEF756FD2420FEF753FD0020FEF7AC
:101E300050FD2320FEF74DFD0020FEF74AFD3C201B
:101E4000FEF747FD0020FEF744FD3620FEF741FD7A
:101E50000020FEF73EFD3220FEF73BFD0020FEF79E
:101E600038FD2F20FEF735FD0020FEF732FD2C2037
:101E7000FEF72FFD0020FEF72CFD2920FEF729FD9F
:101E80000020FEF726FD2620FEF723FD0020FEF7AA
:101E900020FD2420FEF71DFD0020FEF71AFD242062
:101EA000FEF717FD0020FEF714FD2320FEF711FDBD
:101EB0000020FEF70EFDC420FEF708FD6220FEF7AD
:101EC00008FD0020FEF705FD0520FEF702FD0020BD
:101ED000FEF7FFFC8420FEF7FCFC0020FEF7F9FC77
:101EE000F020FEF7F6FC0020FEF7F3FC1820FEF7CA
:101EF000F0FC0020FEF7EDFCA420FEF7EAFC002039
:101F0000FEF7E7FC1820FEF7E4FC0020FEF7E1FCFA
:101F10005020FEF7DEFC0020FEF7DBFC0C20FEF775
:101F2000D8FC0020FEF7D5FC1720FEF7D2FC0020DD
:101F3000FEF7CFFC9520FEF7CCFC0020FEF7C9FC95
:101F4000F320FEF7C6FC0020FEF7C3FCE620FEF7F8
:101F5000C0FC0020FEF7BDFCC520FEF7B7FC322018
:101F6000FEF7B7FC0020FEF7B4FC4420FEF7B1FCFE
:101F70000020FEF7AEFC6520FEF7ABFC0020FEF76C
:101F8000A8FC7620FEF7A5FC0020FEF7A2FC882026
:101F9000FEF79FFC0020FEF79CFCC620FEF796FC97
:101FA0002020FEF796FC0020FEF793FC1720FEF79A
:101FB00090FC0020FEF78DFC0120FEF78AFC00203B
:101FC000FEF787FCC720FEF781FC0020FEF781FCAE
:101FD0000020FEF77EFC0020FEF77BFC0020FEF7D1
:101FE00078FCC820FEF772FC0020FEF772FC00208F
:101FF000FEF76FFC0020FEF76CFC0020FEF769FC8A
:10200000C920FEF763FC0020FEF763FC0020FEF70A
:1020100060FC0020FEF75DFC0020FEF75AFC00206B
:10202000FEF757FC0020FEF754FC0020FEF751FCA1
:102030000020FEF74EFC0020FEF74BFC0020FEF7D0
:1020400048FC0020FEF745FC0020FEF742FC002083
:10205000FEF73FFC0020FEF73CFC0020FEF739FCB9
:102060000020FEF736FCE020FEF730FC1620FEF7DD
:1020700030FC0020FEF72DFC1C20FEF72AFC00207F
:10208000FEF727FC2120FEF724FC0020FEF721FCB0
:102090003620FEF71EFC0020FEF71BFC4620FEF754
:1020A00018FC0020FEF715FC5220FEF712FC002061
:1020B000FEF70FFC6420FEF70CFC0020FEF709FC85
:1020C0007A20FEF706FC0020FEF703FC8B20FEF7CB
:1020D00000FC0020FEF7FDFB9920FEF7FAFB002034
:1020E000FEF7F7FBA820FEF7F4FB0020FEF7F1FB5C
:1020F000B920FEF7EEFB0020FEF7EBFBC420FEF755
:10210000E8FB0020FEF7E5FBCA20FEF7E2FB00201B
:10211000FEF7DFFBD220FEF7DCFB0020FEF7D9FB49
:10212000D920FEF7D6FB0020FEF7D3FBE020FEF718
:10213000D0FB0020FEF7CDFBF320FEF7CAFB00200A
:10214000FEF7C7FBE120FEF7C1FB1620FEF7C1FB3F
:102150000020FEF7BEFB1C20FEF7BBFB0020FEF7B5
:10216000B8FB2220FEF7B5FB0020FEF7B2FB3620BD
:10217000FEF7AFFB0020FEF7ACFB4520FEF7A9FB06
:102180000020FEF7A6FB5220FEF7A3FB0020FEF77F
:10219000A0FB6420FEF79DFB0020FEF79AFB7A204F
:1021A000FEF797FB0020FEF794FB8B20FEF791FBD8
:1021B0000020FEF78EFB9920FEF78BFB0020FEF738
:1021C00088FBA820FEF785FB0020FEF782FBB920E4
:1021D000FEF77FFB0020FEF77CFBC420FEF779FBB7
:1021E0000020FEF776FBCA20FEF773FB0020FEF707
:1021F00070FBD220FEF76DFB0020FEF76AFBD820B3
:10220000FEF767FB0020FEF764FBE020FEF761FBB2
:102210000020FEF75EFBF320FEF75BFB0020FEF7DD
:1022200058FBE220FEF752FB0520FEF752FB002090
:10223000FEF74FFB0B20FEF74CFB0020FEF749FB9F
:102240001B20FEF746FB0020FEF743FB3420FEF781
:1022500040FB0020FEF73DFB4420FEF73AFB002048
:10226000FEF737FB4F20FEF734FB0020FEF731FB73
:102270006120FEF72EFB0020FEF72BFB7920FEF7F6
:1022800028FB0020FEF725FB8820FEF722FB00201C
:10229000FEF71FFB9720FEF71CFB0020FEF719FB43
:1022A000A620FEF716FB0020FEF713FBB720FEF773
:1022B00010FB0020FEF70DFBC220FEF70AFB0020FA
:1022C000FEF707FBC720FEF704FB0020FEF701FB2B
:1022D000D120FEF7FEFA0020FEF7FBFAD620FEF72B
:1022E000F8FA0020FEF7F5FADD20FEF7F2FA0020FA
:1022F000FEF7EFFAF320FEF7ECFA0020FEF7E9FA1A
:10230000E320FEF7E3FA0520FEF7E3FA0020FEF7EC
:10231000E0FA0A20FEF7DDFA0020FEF7DAFA1C20C8
:10232000FEF7D7FA0020FEF7D4FA3320FEF7D1FAF1
:102330000020FEF7CEFA4420FEF7CBFA0020FEF78D
:10234000C8FA5020FEF7C5FA0020FEF7C2FA622054
:10235000FEF7BFFA0020FEF7BCFA7820FEF7B9FAC4
:102360000020FEF7B6FA8820FEF7B3FA0020FEF749
:10237000B0FA9720FEF7ADFA0020FEF7AAFAA620E1
:10238000FEF7A7FA0020FEF7A4FAB720FEF7A1FA9D
:102390000020FEF79EFAC220FEF79BFA0020FEF70F
:1023A00098FAC720FEF795FA0020FEF792FAD1209E
:1023B000FEF78FFA0020FEF78CFAD520FEF789FA97
:1023C0000020FEF786FADD20FEF783FA0020FEF7F4
:1023D00080FAF320FEF77DFA0020FEF77AFAE42077
:1023E000FEF774FA0120FEF774FA0020FEF771FA86
:1023F0000120FEF76EFA0020FEF76BFA0220FEF7CE
:1024000068FA0020FEF765FA2A20FEF762FA00203B
:10241000FEF75FFA3C20FEF75CFA0020FEF759FA5F
:102420004B20FEF756FA0020FEF753FA5D20FEF728
:1024300050FA0020FEF74DFA7420FEF74AFA002009
:10244000FEF747FA8420FEF744FA0020FEF741FA2F
:102450009320FEF73EFA0020FEF73BFAA220FEF79B
:1024600038FA0020FEF735FAB320FEF732FA0020E2
:10247000FEF72FFABE20FEF72CFA0020FEF729FA0D
:10248000C420FEF726FA0020FEF723FACD20FEF73F
:1024900020FA0020FEF71DFAD320FEF71AFA0020DA
:1024A000FEF717FADD20FEF714FA0020FEF711FA06
:1024B000F320FEF70EFA0020FEF70BFAE520FEF7F8
:1024C00005FA0020FEF705FA0020FEF702FA0020C8
:1024D000FEF7FFF90020FEF7FCF90220FEF7F9F9FC
:1024E0000020FEF7F6F92920FEF7F3F90020FEF7A9
:1024F000F0F93C20FEF7EDF90020FEF7EAF94B2059
:10250000FEF7E7F90020FEF7E4F95D20FEF7E1F9B8
:102510000020FEF7DEF97420FEF7DBF90020FEF75D
:10252000D8F98420FEF7D5F90020FEF7D2F99320E0
:10253000FEF7CFF90020FEF7CCF9A220FEF7C9F98B
:102540000020FEF7C6F9B320FEF7C3F90020FEF71E
:10255000C0F9BE20FEF7BDF90020FEF7BAF9C4208D
:10256000FEF7B7F90020FEF7B4F9CD20FEF7B1F978
:102570000020FEF7AEF9D320FEF7ABF90020FEF7FE
:10258000A8F9DC20FEF7A5F90020FEF7A2F9F32058
:10259000FEF79FF90020FEF79CF9E620FEF796F97A
:1025A0001120FEF796F90020FEF793F93420FEF78C
:1025B00090F90020FEF78DF95620FEF78AF90020E9
:1025C000FEF787F97620FEF784F90020FEF781F9FF
:1025D0007720FEF77EF90020FEF77BF96620FEF7F4
:1025E00078F90020FEF775F98820FEF772F90020CF
:1025F000FEF76FF99920FEF76CF90020FEF769F9F4
:10260000BB20FEF766F90020FEF763F99920FEF77C
:1026100060F90020FEF75DF96620FEF75AF9002008
:10262000FEF757F95520FEF754F90020FEF751F94F
:102630005520FEF74EF90020FEF74BF94520FEF736
:1026400048F90020FEF745F94320FEF742F9002043
:10265000FEF73FF94420FEF73CF90020FEF739F978
:10266000E720FEF733F93220FEF733F90020FEF7BA
:1026700030F95520FEF72DF90020FEF72AF97620D3
:10268000FEF727F90020FEF724F96620FEF721F96E
:102690000020FEF71EF96720FEF71BF90020FEF769
:1026A00018F96720FEF715F90020FEF712F98720C8
:1026B000FEF70FF90020FEF70CF99920FEF709F953
:1026C0000020FEF706F9BB20FEF703F90020FEF715
:1026D00000F99920FEF7FDF80020FEF7FAF87720C0
:1026E000FEF7F7F80020FEF7F4F84420FEF7F1F8C3
:1026F0000020FEF7EEF85620FEF7EBF80020FEF77C
:10270000E8F82320FEF7E5F80020FEF7E2F8332092
:10271000FEF7DFF80020FEF7DCF84520FEF7D9F8D9
:102720000020FEF7D6F8E820FEF7D0F80020FEF7EC
:10273000D0F80020FEF7CDF89920FEF7CAF8002067
:10274000FEF7C7F88720FEF7C4F80020FEF7C1F8AF
:102750008820FEF7BEF80020FEF7BBF87720FEF7D2
:10276000B8F80020FEF7B5F86620FEF7B2F80020B2
:10277000FEF7AFF88820FEF7ACF80020FEF7A9F8C6
:10278000AA20FEF7A6F80020FEF7A3F8BB20FEF76C
:10279000A0F80020FEF79DF89920FEF79AF8002097
:1027A000FEF797F86620FEF794F80020FEF791F800
:1027B0005520FEF78EF80020FEF78BF85520FEF727
:1027C00088F80020FEF785F84420FEF782F8002004
:1027D000FEF77FF84420FEF77CF80020FEF779F83A
:1027E0005520FEF776F80020FEF773F8E920FEF793
:1027F0006DF8AA20FEF76DF80020FEF76AF80020B9
:10280000FEF767F80020FEF764F80020FEF75EF898
:10281000AA20FEF75EF8CF20FEF758F80020FEF75A
:1028200058F80020FEF755F80020FEF752F8002077
:10283000FEF74FF80020FEF74CF80020FEF749F8AD
:102840000020FEF746F80020FEF743F80020FEF7D0
:1028500040F80020FEF73DF80020FEF73AF800208F
:10286000FEF737F80020FEF734F80020FEF731F8C5
:102870000020FEF72EF80020FEF72BF80020FEF7D0
:1028800028F8F020FEF722F80020FEF722F850206A
:10289000FEF71FF80020FEF71CF80020FEF719F8DD
:1028A0000020FEF716F8F320FEF710F80020FEF7E0
:1028B00010F8F920FEF70AF80620FEF70AF81020B3
:1028C000FEF707F82920FEF704F80020FEF701F8CC
:1028D0003A20FDF7FBFF5520FDF7FBFF1120FDF728
:1028E000F5FF642003F0A2FD2920FDF7EFFF35205E
:1028F000FDF7ECFF0020FDF7ECFF5120FDF7E6FFB0
:10290000FF20FDF7E6FF5320FDF7E0FF2C20FDF749
:10291000E0FF5520FDF7DAFF8220FDF7DAFF2C20DB
:10292000FDF7D4FF02F0E6B8FE488088A0F5AA4182
:1029300010397DD155214FF47040FDF7D2FFAA2107
:102940004FF20100FDF7CDFF52214FF20200FDF7DB
:10295000C8FF08214FF20300FDF7C3FF01214FF22A
:102960000400FDF7BEFF0D214FF43040FDF7B9FF25
:102970000D214BF20100FDF7B4FF0D214BF20200D7
:10298000FDF7AFFF34214FF43640FDF7AAFF3421A5
:102990004BF20160FDF7A5FF34214BF20260FDF719
:1029A000A0FF0D214FF43140FDF79BFF0D214BF2AD
:1029B0000110FDF796FF0D214BF20210FDF791FF7C
:1029C00034214FF43740FDF78CFF34214BF2017076
:1029D000FDF787FF34214BF20270FDF782FF0021E3
:1029E0004FF43240FDF77DFF00214BF20120FDF74F
:1029F00078FF00214BF20220FDF773FF24214FF4F2
:102A00003840FDF76EFF24214BF60100FDF769FF0A
:102A100024214BF60200FDF764FF01214FF43F40F3
:102A2000FDF75FFF0F214FF43340FDF75AFF00E041
:102A3000FDE30F214BF20130FDF753FF0F214BF265
:102A40000230FDF74EFF34214FF43940FDF749FFC6
:102A500034214BF60110FDF744FF34214BF60210F0
:102A6000FDF73FFF08214FF43540FDF73AFF0821FD
:102A70004BF20150FDF735FF08214BF20250FDF7F4
:102A800030FF03214FF44240FDF72BFF24214FF488
:102A90003A40FDF726FF24214BF60120FDF721FFE8
:102AA00024214BF60220FDF71CFF00214FF43C408F
:102AB000FDF717FF78214BF60140FDF712FF0021CB
:102AC0004BF60240FDF70DFF00214FF43D40FDF7AE
:102AD00008FF78214BF60150FDF703FF00214BF66C
:102AE0000250FDF7FEFE00214FF43E40FDF7F9FED7
:102AF00064214BF60160FDF7F4FE00214FF45140D4
:102B0000FDF7EFFE33214DF20110FDF7EAFE002143
:102B10004DF20210FDF7E5FE34214DF20310FDF7F2
:102B2000E0FE00214DF20410FDF7DBFE3A214DF2EC
:102B30000510FDF7D6FE00214DF20610FDF7D1FE7F
:102B40004A214DF20710FDF7CCFE00214DF208108E
:102B5000FDF7C7FE5C214DF20910FDF7C2FE002112
:102B60004DF20A10FDF7BDFE81214DF20B10FDF76D
:102B7000B8FE00214DF20C10FDF7B3FEA6214DF278
:102B80000D10FDF7AEFE00214DF20E10FDF7A9FE6F
:102B9000E5214DF20F10FDF7A4FE01214DF21010BA
:102BA000FDF79FFE13214DF21110FDF79AFE012152
:102BB0004DF21210FDF795FE54214DF21310FDF762
:102BC00090FE01214DF21410FDF78BFE82214DF293
:102BD0001510FDF786FE01214DF21610FDF781FE5E
:102BE000CA214DF21710FDF77CFE02214DF218109C
:102BF000FDF777FE00214DF21910FDF772FE02215C
:102C00004DF21A10FDF76DFE01214DF21B10FDF77C
:102C100068FE02214DF21C10FDF763FE34214DF2D7
:102C20001D10FDF75EFE02214DF21E10FDF759FE4C
:102C300067214DF21F10FDF754FE02214DF22010C6
:102C4000FDF74FFE84214DF22110FDF74AFE0221CF
:102C50004DF22210FDF745FEA4214DF22310FDF7A1
:102C600040FE02214DF22410FDF73BFEB7214DF24C
:102C70002510FDF736FE02214DF22610FDF731FE3C
:102C8000CF214DF22710FDF72CFE02214DF2281026
:102C9000FDF727FEDE214DF22910FDF722FE02216D
:102CA0004DF22A10FDF71DFEF2214DF22B10FDF71B
:102CB00018FE02214DF22C10FDF713FEFE214DF2FD
:102CC0002D10FDF70EFE03214DF22E10FDF709FE2B
:102CD00010214DF22F10FDF704FE03214DF23010AC
:102CE000FDF7FFFD33214DF23110FDF7FAFD032111
:102CF0004DF23210FDF7F5FD6D214DF23310FDF769
:102D0000F0FD00214FF45240FDF7EBFD33214DF271
:102D10000120FDF7E6FD00214DF20220FDF7E1FD67
:102D2000342101E0140400204DF20320FDF7D9FD09
:102D300000214DF20420FDF7D4FD3A214DF205208B
:102D4000FDF7CFFD00214DF20620FDF7CAFD4A2117
:102D50004DF20720FDF7C5FD00214DF20820FDF7DB
:102D6000C0FD5C214DF20920FDF7BBFD00214DF2B5
:102D70000A20FDF7B6FD81214DF20B20FDF7B1FDD4
:102D800000214DF20C20FDF7ACFDA6214DF20D20E7
:102D9000FDF7A7FD00214DF20E20FDF7A2FDE52174
:102DA0004DF20F20FDF79DFD01214DF21020FDF7A2
:102DB00098FD13214DF21120FDF793FD01214DF2F5
:102DC0001220FDF78EFD54214DF21320FDF789FDF1
:102DD00001214DF21420FDF784FD82214DF21520D2
:102DE000FDF77FFD01214DF21620FDF77AFDCA2186
:102DF0004DF21720FDF775FD02214DF21820FDF769
:102E000070FD00214DF21920FDF76BFD02214DF2FE
:102E10001A20FDF766FD01214DF21B20FDF761FD33
:102E200002214DF21C20FDF75CFD34214DF21D20E6
:102E3000FDF757FD02214DF21E20FDF752FD6721DF
:102E40004DF21F20FDF74DFD02214DF22020FDF730
:102E500048FD84214DF22120FDF743FD02214DF272
:102E60002220FDF73EFDA4214DF22320FDF739FD80
:102E700002214DF22420FDF734FDB7214DF225202B
:102E8000FDF72FFD02214DF22620FDF72AFDCF216F
:102E90004DF22720FDF725FD02214DF22820FDF7F8
:102EA00020FDDE214DF22920FDF71BFD02214DF210
:102EB0002A20FDF716FDF2214DF22B20FDF711FD22
:102EC00002214DF22C20FDF70CFDFE214DF22D20AC
:102ED000FDF707FD03214DF22E20FDF702FD102125
:102EE0004DF22F20FDF7FDFC03214DF23020FDF7C0
:102EF000F8FC33214DF23120FDF7F3FC03214DF2B4
:102F00003220FDF7EEFC6D214DF23320FDF7E9FC98
:102F100000214FF45340FDF7E4FC33214DF2013022
:102F2000FDF7DFFC00214DF20230FDF7DAFC342121
:102F30004DF20330FDF7D5FC00214DF20430FDF7D2
:102F4000D0FC3A214DF20530FDF7CBFC00214DF2CB
:102F50000630FDF7C6FC4A214DF20730FDF7C1FCF3
:102F600000214DF20830FDF7BCFC5C214DF2093028
:102F7000FDF7B7FC00214DF20A30FDF7B2FC8121CC
:102F80004DF20B30FDF7ADFC00214DF20C30FDF79A
:102F9000A8FCA6214DF20D30FDF7A3FC00214DF257
:102FA0000E30FDF79EFCE5214DF20F30FDF799FC48
:102FB00001214DF21030FDF794FC13214DF2113038
:102FC000FDF78FFC01214DF21230FDF78AFC5421F0
:102FD0004DF21330FDF785FC01214DF21430FDF761
:102FE00080FC82214DF21530FDF77BFC01214DF272
:102FF0001630FDF776FCCA214DF21730FDF771FC53
:1030000002214DF21830FDF76CFC00214DF2193011
:10301000FDF767FC02214DF21A30FDF762FC012139
:103020004DF21B30FDF75DFC02214DF21C30FDF727
:1030300058FC34214DF21D30FDF753FC02214DF2B6
:103040001E30FDF74EFC67214DF21F30FDF749FCA5
:1030500002214DF22030FDF744FC84214DF2213055
:10306000FDF73FFC02214DF22230FDF73AFCA4218E
:103070004DF22330FDF735FC02214DF22430FDF7EF
:1030800030FCB7214DF22530FDF72BFC02214DF22B
:103090002630FDF726FCCF214DF22730FDF721FC2D
:1030A00002214DF22830FDF71CFCDE214DF22930C3
:1030B000FDF717FC02214DF22A30FDF712FCF22138
:1030C0004DF22B30FDF70DFC02214DF22C30FDF7B7
:1030D00008FCFE214DF22D30FDF703FC03214DF2DB
:1030E0002E30FDF7FEFB10214DF22F30FDF7F9FBDE
:1030F00003214DF23030FDF7F4FB33214DF2313036
:10310000FDF7EFFB03214DF23230FDF7EAFB6D21B5
:103110004DF23330FDF7E5FB00214FF45440FDF74D
:10312000E0FB33214DF20140FDF7DBFB00214DF2C6
:103130000240FDF7D6FB34214DF20340FDF7D1FBF1
:1031400000214DF20440FDF7CCFB3A214DF2054041
:10315000FDF7C7FB00214DF20640FDF7C2FB4A21F7
:103160004DF20740FDF7BDFB00214DF20840FDF791
:10317000B8FB5C214DF20940FDF7B3FB00214DF295
:103180000A40FDF7AEFB81214DF20B40FDF7A9FB94
:1031900000214DF20C40FDF7A4FBA6214DF20D409D
:1031A000FDF79FFB00214DF20E40FDF79AFBE52154
:1031B0004DF20F40FDF795FB01214DF21040FDF758
:1031C00090FB13214DF21140FDF78BFB01214DF2D5
:1031D0001240FDF786FB54214DF21340FDF781FBB1
:1031E00001214DF21440FDF77CFB82214DF2154088
:1031F000FDF777FB01214DF21640FDF772FBCA2166
:103200004DF21740FDF76DFB02214DF21840FDF71E
:1032100068FB00214DF21940FDF763FB02214DF2DE
:103220001A40FDF75EFB01214DF21B4000E006E372
:10323000FDF757FB02214DF21C40FDF752FB3421F4
:103240004DF21D40FDF74DFB02214DF21E40FDF7F2
:1032500048FB67214DF21F40FDF743FB02214DF271
:103260002040FDF73EFB84214DF22140FDF739FB64
:1032700002214DF22240FDF734FBA4214DF2234000
:10328000FDF72FFB02214DF22440FDF72AFBB72169
:103290004DF22540FDF725FB02214DF22640FDF7BA
:1032A00020FBCF214DF22740FDF71BFB02214DF201
:1032B0002840FDF716FBDE214DF22940FDF711FBFA
:1032C00002214DF22A40FDF70CFBF2214DF22B407A
:1032D000FDF707FB02214DF22C40FDF702FBFE211A
:1032E0004DF22D40FDF7FDFA03214DF22E40FDF782
:1032F000F8FA10214DF22F40FDF7F3FA03214DF2B9
:103300003040FDF7EEFA33214DF23140FDF7E9FA96
:1033100003214DF23240FDF7E4FA6D214DF23340C6
:10332000FDF7DFFA00214FF45540FDF7DAFA3321BB
:103330004DF20150FDF7D5FA00214DF20250FDF794
:10334000D0FA34214DF20350FDF7CBFA00214DF2B3
:103350000450FDF7C6FA3A214DF20550FDF7C1FAC7
:1033600000214DF20650FDF7BCFA4A214DF20750FC
:10337000FDF7B7FA00214DF20850FDF7B2FA5C21D3
:103380004DF20950FDF7ADFA00214DF20A50FDF75C
:10339000A8FA81214DF20B50FDF7A3FA00214DF25E
:1033A0000C50FDF79EFAA6214DF20D50FDF799FA4B
:1033B00000214DF20E50FDF794FAE5214DF20F5029
:1033C000FDF78FFA01214DF21050FDF78AFA132113
:1033D0004DF21150FDF785FA01214DF21250FDF723
:1033E00080FA54214DF21350FDF77BFA01214DF282
:1033F0001450FDF776FA82214DF21550FDF771FA5F
:1034000001214DF21650FDF76CFACA214DF217500A
:10341000FDF767FA02214DF21850FDF762FA00211C
:103420004DF21950FDF75DFA02214DF21A50FDF7E9
:1034300058FA01214DF21B50FDF753FA02214DF2CB
:103440001C50FDF74EFA34214DF21D50FDF749FA9C
:1034500002214DF21E50FDF744FA67214DF21F5034
:10346000FDF73FFA02214DF22050FDF73AFA842190
:103470004DF22150FDF735FA02214DF22250FDF7B1
:1034800030FAA4214DF22350FDF72BFA02214DF220
:103490002450FDF726FAB7214DF22550FDF721FA09
:1034A00002214DF22650FDF71CFACF214DF2275094
:1034B000FDF717FA02214DF22850FDF712FADE212E
:1034C0004DF22950FDF70DFA02214DF22A50FDF779
:1034D00008FAF2214DF22B50FDF703FA02214DF2CA
:1034E0002C50FDF7FEF9FE214DF22D50FDF7F9F9B4
:1034F00003214DF22E50FDF7F4F910214DF22F501B
:10350000FDF7EFF903214DF23050FDF7EAF93321D1
:103510004DF23150FDF7E5F903214DF23250FDF740
:10352000E0F96D214DF23350FDF7DBF900214FF446
:103530005640FDF7D6F933214DF20160FDF7D1F980
:1035400000214DF20260FDF7CCF934214DF2036009
:10355000FDF7C7F900214DF20460FDF7C2F93A21E9
:103560004DF20560FDF7BDF900214DF20660FDF753
:10357000B8F94A214DF20760FDF7B3F900214DF289
:103580000860FDF7AEF95C214DF20960FDF7A9F97D
:1035900000214DF20A60FDF7A4F981214DF20B6084
:1035A000FDF79FF900214DF20C60FDF79AF9A62175
:1035B0004DF20D60FDF795F900214DF20E60FDF71B
:1035C00090F9E5214DF20F60FDF78BF901214DF2E5
:1035D0001060FDF786F913214DF21160FDF781F9B6
:1035E00001214DF21260FDF77CF954214DF2136078
:1035F000FDF777F901214DF21460FDF772F9822190
:103600004DF21560FDF76DF901214DF21660FDF7E1
:1036100068F9CA214DF21760FDF763F902214DF2F6
:103620001860FDF75EF900214DF21960FDF759F9B8
:1036300002214DF21A60FDF754F901214DF21B6091
:10364000FDF74FF902214DF21C60FDF74AF93421D4
:103650004DF21D60FDF745F902214DF21E60FDF7A8
:1036600040F967214DF21F60FDF73BF902214DF251
:103670002060FDF736F984214DF22160FDF731F924
:1036800002214DF22260FDF72CF9A4214DF22360B6
:10369000FDF727F902214DF22460FDF722F9B72149
:1036A0004DF22560FDF71DF902214DF22660FDF770
:1036B00018F9CF214DF22760FDF713F902214DF2E1
:1036C0002860FDF70EF9DE214DF22960FDF709F9BA
:1036D00002214DF22A60FDF704F9F2214DF22B6030
:1036E000FDF7FFF802214DF22C60FDF7FAF8FE21FC
:1036F0004DF22D60FDF7F5F803214DF22E60FDF738
:10370000F0F810214DF22F60FDF7EBF803214DF298
:103710003060FDF7E6F833214DF23160FDF7E1F856
:1037200003214DF23260FDF7DCF86D214DF233607C
:10373000FDF7D7F855214FF47040FDF7D2F8AA21D4
:103740004FF20100FDF7CDF852214FF20200FDF7D4
:10375000C8F808214FF20300FDF7C3F800214FF22B
:103760000400FDF7BEF8CC214FF43140FDF7B9F865
:1037700000214BF20110FDF7B4F805214FF436405B
:10378000FDF7AFF870214FF43740FDF7AAF870212C
:103790004BF20170FDF7A5F801214FF43840FDF719
:1037A000A0F803214BF60100FDF79BF803214BF62F
:1037B0000200FDF796F803214BF60300FDF791F8A0
:1037C00002214FF43C40FDF78CF800214BF60140FC
:1037D000FDF787F800214BF60240FDF782F8D02173
:1037E0004FF44940FDF77DF802214CF60110FDF73A
:1037F00078F850214CF60210FDF773F850214CF682
:103800000310FDF76EF850214CF60410FDF769F82F
:1038100000214FF45450FDF764F855214FF46850DF
:10382000FDF75FF84FF48850FDF750F8782002F06C
:10383000DAFD4FF42450FDF749F801F05BB9FE487A
:103840008088A0F5134125397ED147F6F001E520A7
:10385000FDF747F84FF480710120FDF742F84FF46F
:10386000E0610220FDF73DF841F230010320FDF751
:1038700038F800210420FDF734F840F20221082036
:10388000FDF72FF800210920FDF72BF800210A2071
:10389000FDF727F800210C20FDF723F800210D206B
:1038A000FDF71FF800210F20FDF71BF80021102065
:1038B000FDF717F807211120FDF713F8002112205A
:1038C000FDF70FF800211320FDF70BF8002107206A
:1038D000FDF707F841F290611020FDF702F840F281
:1038E00027211120FCF7FDFF9D211220FCF7F9FF95
:1038F0004FF4C8511320FCF7F4FF25212920FCF7D1
:10390000F0FF0D212B20FCF7ECFF07213020FCF706
:10391000E8FF40F203313120FCF7E3FF03213220BE
:10392000FCF7DFFF40F206213520FCF7DAFF082123
:103930003620FCF7D6FF40F206413720FCF7D1FFD6
:103940004FF44171382000E057E0FCF7CAFF07212F
:103950003920FCF7C6FF40F202613C20FCF7C1FFB2
:1039600008213D20FCF7BDFF00215020FCF7B9FFE6
:10397000EF215120FCF7B5FF00215220FCF7B1FFE9
:1039800040F23F115320FCF7ACFF4FF42741602079
:10399000FCF7A7FF01216120FCF7A3FF00216A20AB
:1039A000FCF79FFF00218020FCF79BFF0021812076
:1039B000FCF797FF00218220FCF793FF0021832072
:1039C000FCF78FFF00218420FCF78BFF002185206E
:1039D000FCF787FF10219020FCF783FF4FF4C061B4
:1039E0009220FCF77EFF40F233110720FCF779FFAD
:1039F00022210020FCF775FF1FE78F488088A0F583
:103A0000134128397ED141F28F01EC20FCF769FF88
:103A100041F23421EF20FCF764FF4FF48071012064
:103A2000FCF75FFF4FF4E0610220FCF75AFF41F220
:103A300030010320FCF755FF00210420FCF751FF63
:103A400040F202210820FCF74CFF00210920FCF77E
:103A500048FF00210A20FCF744FF01210C20FCF75D
:103A600040FF00210D20FCF73CFF00210F20FCF758
:103A700038FF00211020FCF734FF07211120FCF74C
:103A800030FF00211220FCF72CFF00211320FCF74F
:103A900028FF01210720FCF724FF322002F0C6FC9A
:103AA00041F290411020FCF71CFF40F22721112029
:103AB000FCF717FF322002F0B9FC8A211220FCF734
:103AC00010FF322002F0B2FC4FF4D0511320FCF76B
:103AD00008FF06212920FCF704FF0D212B20FCF70D
:103AE00000FF322002F0A2FC00212020FCF7F9FEAA
:103AF00000212120FCF7F5FE322002F097FC002186
:103B0000302000E074E0FCF7ECFE40F2046131206C
:103B1000FCF7E7FE40F205313220FCF7E2FE00211F
:103B20003520FCF7DEFE40F609413620FCF7D9FED1
:103B30004FF401713720FCF7D4FE40F201313820F8
:103B4000FCF7CFFE40F207713920FCF7CAFE0021D6
:103B50003C20FCF7C6FE40F60A213D20FCF7C1FEE2
:103B6000322002F063FC00215020FCF7BAFEEF2166
:103B70005120FCF7B6FE00215220FCF7B2FE40F2C5
:103B80003F115320FCF7ADFE4FF427416020FCF7B6
:103B9000A8FE01216120FCF7A4FE00216A20FCF7A9
:103BA000A0FE00218020FCF79CFE00218120FCF774
:103BB00098FE00218220FCF794FE00218320FCF770
:103BC00090FE00218420FCF78CFE00218520FCF76C
:103BD00088FE10219020FCF784FE4FF4C0619220F3
:103BE000FCF77FFE40F233110720FCF77AFE24E653
:103BF00011488088A0F5134120397DD10846FCF793
:103C000070FE4FF480710120FCF76BFE4FF4E06111
:103C10000220FCF766FE41F230010320FCF761FE52
:103C200000210420FCF75DFE40F202210820FCF791
:103C300058FE0021092001E014040020FCF751FE89
:103C400000210A20FCF74DFE01210C20FCF749FE63
:103C500000210D20FCF745FE00210F20FCF741FE5E
:103C6000322002F0E3FB40F201110720FCF739FE9D
:103C7000322002F0DBFB4FF486511020FCF731FEBE
:103C800007211120FCF72DFE4FF488711220FCF75C
:103C900028FE4FF430611320FCF723FE0021292079
:103CA000FCF71FFE44F210012B20FCF71AFE002146
:103CB0005020FCF716FEEF215120FCF712FE0021E8
:103CC0005220FCF70EFE40F23F115320FCF709FE94
:103CD0004FF41C516020FCF704FE01216120FCF729
:103CE00000FE00216A20FCF7FCFD00218020FCF78B
:103CF000F8FD0021812000E030E0FCF7F2FD00211A
:103D00008220FCF7EEFD00218320FCF7EAFD002174
:103D10008420FCF7E6FD00218520FCF7E2FD102160
:103D20009020FCF7DEFD00219220FCF7DAFD012156
:103D30009320FCF7D6FD4FF488719520FCF7D1FD58
:103D400000219720FCF7CDFD00219820FCF7C9FD4C
:103D500040F273110720FCF7C4FD6EE5FE48808831
:103D6000A0F5134131397DD141F21401E720FCF770
:103D7000B8FD4FF480710120FCF7B3FD4FF40071E2
:103D80000220FCF7AEFD41F238010320FCF7A9FD4B
:103D900040F202210820FCF7A4FD00210920FCF7D5
:103DA000A0FD00210A20FCF79CFD00210C20FCF75F
:103DB00098FD00210D20FCF794FD00210F20FCF759
:103DC00090FD00211020FCF78CFD07211120FCF74D
:103DD00088FD00211220FCF784FD00211320FCF750
:103DE00080FDC82002F022FB41F290611020FCF718
:103DF00078FD40F227211120FCF773FD322002F0FC
:103E000015FB0C211220FCF76CFD322002F00EFB9A
:103E10004FF400611320FCF764FD11212920FCF709
:103E200060FD0B212B20FCF75CFD322002F0FEFA36
:103E300000212020FCF755FD40F23F112120FCF726
:103E400050FD00213020FCF74CFD4FF483713120F0
:103E5000FCF747FD00213220FCF743FD4FF40171D0
:103E6000352000E064E0FCF73CFD41F20A613620B9
:103E7000FCF737FD40F207713720FCF732FD4FF4B5
:103E800083713820FCF72DFD40F207713920FCF7D3
:103E900028FD40F202413C20FCF723FD40F60F4193
:103EA0003D20FCF71EFD00215020FCF71AFDEF21FC
:103EB0005120FCF716FD00215220FCF712FD40F2C4
:103EC0003F115320FCF70DFD4FF41C516020FCF70F
:103ED00008FD01216120FCF704FD00216A20FCF7A8
:103EE00000FD00218020FCF7FCFC00218120FCF774
:103EF000F8FC00218220FCF7F4FC00218320FCF771
:103F0000F0FC00218420FCF7ECFC00218520FCF76C
:103F1000E8FC10219020FCF7E4FC4FF4C0619220F3
:103F2000FCF7DFFC40F233110720FCF7DAFC84E4F5
:103F300089488088A0F5A84108397DD14FF4807167
:103F40000120FCF7CEFC4FF4E0610220FCF7C9FC35
:103F500041F230010320FCF7C4FC00210420FCF7EF
:103F6000C0FC40F207210820FCF7BBFC002109201F
:103F7000FCF7B7FC00210A20FCF7B3FC00210C2061
:103F8000FCF7AFFC00210D20FCF7ABFC00210F205B
:103F9000FCF7A7FC142002F049FA41F2B0611020AE
:103FA000FCF79FFC01211120FCF79BFC012117204D
:103FB000FCF797FC4FF49C711220FCF792FC4FF435
:103FC00000611320FCF78DFC09212920FCF789FCF6
:103FD00009212A20FCF785FC0021A420FCF781FCA4
:103FE00000215020FCF77DFCEF215120FCF779FCEB
:103FF00000215220FCF775FC40F23F115320FCF7E2
:1040000070FC4FF41C516020FCF76BFC0121612017
:10401000FCF767FC00216A20FCF763FC002180208C
:10402000FCF75FFC00218120FCF75BFC0021822073
:10403000FCF757FC002100E024E08320FCF751FC52
:1040400000218420FCF74DFC00218520FCF749FC71
:1040500013219020FCF745FC00219220FCF741FC45
:1040600003219320FCF73DFC4FF488719520FCF769
:1040700038FC40F273110720FCF733FC322002F0C9
:10408000D5F9B9E434488088A0F5A851053965D13F
:104090000720FCF726FC322002F0C8F94FF48E719D
:1040A0001220FCF71EFC0121A420FCF71AFC0F21B2
:1040B0000820FCF716FC08210A20FCF712FC082156
:1040C0000D20FCF70EFC40F207713020FCF709FCD4
:1040D00007213120FCF705FC40F203613220FCF798
:1040E00000FC4FF4E0613320FCF7FBFB40F20221BF
:1040F0003420FCF7F6FB02213520FCF7F2FB41F6F9
:104100000F713620FCF7EDFB40F207713720FCF70A
:10411000E8FB00213820FCF7E4FB00213920FCF704
:10412000E0FB40F207713A20FCF7DBFB00213B206B
:10413000FCF7D7FB07213C20FCF7D3FB00213D20F7
:10414000FCF7CFFB322002F071F901210720FCF7C8
:10415000C8FB0121172002E014040020AEE0FCF7A8
:10416000C0FB322002F062F94FF4BD511020FCF781
:10417000B8FB40F217211120FCF7B3FB4FF48F710D
:104180001220FCF7AEFB4FF470611320FCF7A9FB83
:1041900000212A20FCF7A5FB0A212920FCF7A1FB1E
:1041A0004FF49F711220FCF79CFB00215020FCF77C
:1041B00098FBEF215120FCF794FB00215220FCF7E3
:1041C00090FB40F23F115320FCF78BFB4FF41C5146
:1041D0006020FCF786FB01216120FCF782FB0021B7
:1041E0006A20FCF77EFB00218020FCF77AFB00218F
:1041F0008120FCF776FB00218220FCF772FB002176
:104200008320FCF76EFB00218420FCF76AFB002171
:104210008520FCF766FB13219020FCF762FB4FF42E
:1042200040719220FCF75DFB05219320FCF759FBC0
:1042300000219520FCF755FB00219720FCF751FB4E
:1042400000219820FCF74DFB4FF480710120FCF712
:1042500048FB4FF4E0610220FCF743FB41F23801D8
:104260000320FCF73EFB00210420FCF73AFB002171
:104270000C20FCF736FB00210F20FCF732FB00215D
:104280002020FCF72EFB00212120FCF72AFB212116
:104290000720FCF726FB142002F0C8F86121072054
:1042A000FCF71FFB142002F0C1F840F27311072045
:1042B000FCF717FB142002F0B9F898E4FE48808858
:1042C000A0F5354105397DD10846FCF70AFB0021F0
:1042D0000846FCF706FB00210846FCF702FB00211C
:1042E0000846FCF7FEFA0121A420FCF7FAFA142094
:1042F00002F09CF84FF41C516020FCF7F2FA40F2F7
:1043000002210820FCF7EDFA4FF405713020FCF78C
:10431000E8FA43F215713120FCF7E3FA40F2046148
:104320003220FCF7DEFA40F616613320FCF7D9FAAA
:1043300042F211213420FCF7D4FA4FF4A851352071
:10434000FCF7CFFA48F207513620FCF7CAFA41F2DF
:1043500007413720FCF7C5FA41F203413820FCF74A
:10436000C0FA20213920FCF7BCFA1A219020FCF772
:10437000B8FA00211020FCF7B4FA07211120FCF74D
:10438000B0FA00211220FCF7ACFA00211320FCF750
:10439000A8FA142002F04AF84FF4E6611020FCF766
:1043A000A0FA40F237111120FCF79BFA142002F01A
:1043B0003DF84FF4DC711220FCF793FA142002F060
:1043C00035F800E083E04FF470611320FCF789FAC0
:1043D00080212A20FCF785FA48212920FCF781FA60
:1043E000142002F023F84FF480710120FCF779FAD1
:1043F0004FF4E0610220FCF774FA41F23801032027
:10440000FCF76FFA40F202210820FCF76AFA00215B
:104410000A20FCF766FA00210C20FCF762FA002162
:104420000D20FCF75EFA30210E20FCF75AFA00212D
:104430005020FCF756FAEF215120FCF752FA0021E8
:104440005220FCF74EFA40F23F115320FCF749FA94
:104450004FF41C516020FCF744FA01216120FCF765
:1044600040FA00216A20FCF73CFA11219020FCF769
:1044700038FA4FF4C0619220FCF733FA40F202415F
:104480009320FCF72EFA02219420FCF72AFA14203C
:1044900001F0CCFF01210720FCF723FA142001F0E2
:1044A000C5FF61210720FCF71CFA40F273110720B9
:1044B000FCF717FA00212020FCF713FA0021212035
:1044C000FCF70FFA22210020FCF70BFA12E37A48DE
:1044D0008088A0F5454105397DD10846FCF701FAF1
:1044E00000210846FCF7FDF9142001F09FFF002190
:1044F0000846FCF7F6F900210846FCF7F2F900211E
:104500000846FCF7EEF900210846FCF7EAF901211C
:10451000A420FCF7E6F9142001F088FF4FF41C51A9
:104520006020FCF7DEF940F606010820FCF7D9F917
:1045300040F203713020FCF7D4F901213120FCF75F
:10454000D0F904213220FCF7CCF94FF481713320EB
:10455000FCF7C7F94FF440713420FCF7C2F940F280
:1045600003113520FCF7BDF91F213620FCF7B9F9FE
:1045700040F203713720FCF7B4F901213820FCF731
:10458000B0F904213920FCF7ACF915219020FCF793
:10459000A8F94FF482611020FCF7A3F940F24721FB
:1045A0001120FCF79EF94FF4DE711220FCF799F907
:1045B0004FF460611320FCF794F9782001F036FF86
:1045C0004FF480710120FCF78CF94FF40071022048
:1045D000FCF787F900E050E041F230010320FCF7DE
:1045E00080F908210A20FCF77CF900210C20FCF757
:1045F00078F920210E20FCF774F900210F20FCF738
:1046000070F900212020FCF76CF900212120FCF733
:1046100068F93D212A20FCF764F9142001F006FF17
:104620002D212920FCF75DF900215020FCF759F9D4
:104630004DF2EF015120FCF754F900215220FCF714
:1046400050F940F23F115320FCF74BF90021612053
:10465000FCF747F900216A20FCF743F94FF4407159
:104660009220FCF73EF905219320FCF73AF94FF42C
:1046700080710720FCF735F93CE20F488088A0F5EF
:10468000094189397ED101210020FCF72AF94AF637
:10469000A4010320FCF725F900210C20FCF721F9E7
:1046A00040F60C010D20FCF71CF94FF42C510E20A4
:1046B000FCF717F9B02101E0140400201E20FCF7DC
:1046C00010F942F63F310120FCF70BF94FF4C061BD
:1046D0000220FCF706F900211020FCF702F946F24F
:1046E00078011120FCF7FDF800210520FCF7F9F80E
:1046F00000210620FCF7F5F84EF61C711620FCF799
:10470000F0F803211720FCF7ECF840F233210720E2
:10471000FCF7E7F800210B20FCF7E3F800210F205D
:10472000FCF7DFF800214120FCF7DBF800214220F4
:10473000FCF7D7F800214820FCF7D3F840F23F11EE
:104740004920FCF7CEF800214A20FCF7CAF80021E6
:104750004B20FCF7C6F84FF46F414420FCF7C1F83A
:1047600000214520FCF7BDF840F23F114620FCF740
:10477000B8F840F207713020FCF7B3F84FF401713C
:10478000312000E03FE0FCF7ACF84FF4017132203B
:10479000FCF7A7F840F202513320FCF7A2F840F2F0
:1047A00007513420FCF79DF84FF401713520FCF7D8
:1047B00098F84FF401713620FCF793F840F202515B
:1047C0003720FCF78EF840F202313A20FCF789F8E6
:1047D00040F202313B20FCF784F800212320FCF753
:1047E00080F800212420FCF77CF84FF400412520BC
:1047F000FCF777F800214F20FCF773F800214E20DA
:10480000FCF76FF876E1F8488088A0F58A413139E5
:104810007ED101210020FCF764F80A2001F006FE99
:1048200041F228611020FCF75CF80E211220FCF701
:1048300058F840F639211320FCF753F80A2001F00C
:10484000F5FD40211120FCF74CF850211520FCF714
:1048500048F80A2001F0EAFD1E211220FCF741F879
:104860000A2001F0E3FD4FF4B1511020FCF739F8B4
:1048700042F639211320FCF734F80A2001F0D6FD66
:104880004FF480710120FCF72CF84FF440710220A6
:10489000FCF727F841F238010320FCF722F840F238
:1048A00002210820FCF71DF808210A20FCF719F85E
:1048B00000213020FCF715F840F202413120FCF7CE
:1048C00010F84FF483713220FCF70BF840F20351DB
:1048D0003320FCF706F84FF482713420FCF701F81E
:1048E00040F201313520FBF7FCFF40F20771362022
:1048F000FBF7F7FF40F205313720FBF7F2FF4FF4EB
:1049000002713820FBF7EDFF40F60B71392000E013
:104910003BE0FBF7E6FF02214120FBF7E2FF4FF40B
:104920001C516020FBF7DDFF01216120FBF7D9FF5F
:104930004FF404719020FBF7D4FF4FF4857192205F
:10494000FBF7CFFF04219320FBF7CBFF4FF48071DF
:10495000A020FBF7C6FF01210720FBF7C2FF2121A2
:104960000720FBF7BEFF23210720FBF7BAFF332107
:104970000720FBF7B6FF40F233110720FBF7B1FF2A
:104980000021A020FBF7ADFFB4E097488088A0F598
:104990008A413539F8D130211520FBF7A2FF1021CB
:1049A0009A20FBF79EFF20211120FBF79AFF43F28C
:1049B00028411020FBF795FF02211220FBF791FF01
:1049C00041F238011320FBF78CFF282001F02EFD67
:1049D00012210846FBF785FF282001F027FD43F24E
:1049E00020411020FBF77DFF43F238011320FBF735
:1049F00078FF462001F01AFD00213020FBF771FFFF
:104A000040F202413120FBF76CFF40F207313220C7
:104A1000FBF767FF4FF441713320FBF762FF04217E
:104A20003420FBF75EFF40F201413520FBF759FFD0
:104A300040F207713620FBF754FF40F20531372072
:104A4000FBF74FFF4FF4C2613820FBF74AFF4FF4EA
:104A5000C2613920FBF745FF4FF480710120FBF75D
:104A600040FF4FF440710220FBF73BFF41F2300161
:104A70000320FBF736FF40F608010820FBF731FF63
:104A800008210A20FBF72DFF4FF41C516020FBF793
:104A900028FF01216120FBF724FF4FF49F71902034
:104AA000FBF71FFF4FF480719220FBF71AFF4FF4C2
:104AB00080719320FBF715FF4FF44051A020FBF7C6
:104AC00010FF1021A320FBF70CFF01210720FBF7AB
:104AD00008FF21210720FBF704FF23210720FBF714
:104AE00000FF33210720FBF7FCFE40F233110720C3
:104AF000FBF7F7FE0020FCF7A7FA01203B4908600E
:104B00004FF6FF70FCF74BFC1FB000BD2DE9FC4FCA
:104B100005460E4617469846DDF82C900020019079
:104B200031488088A0F5D041043929D12E488079B8
:104B3000012825D1AB4635462B480088C01B401EB6
:104B400086B2474628480088A0EB0B00401E1FFA9B
:104B500080F80020244988712A2048812B208881F0
:104B600043463A4631462846CDF80090FFF7CEFF3F
:104B700001201D4988712B2048812A2088811CE052
:104B8000781B401C80B20190344614E02146284630
:104B9000FBF7D4FEFBF7B5FE4FF0000A06E04846EF
:104BA000FBF797FE0AF101001FFA80FA019882458F
:104BB000F5DB601C84B24445E8DDBDE8FC8F2DE9DF
:104BC000F84F07460D4690469946DDF828B0A8EB09
:104BD0000700401C80B20090A9EB0500401C1FFAA2
:104BE00080FA00241AE00000140400208081214291
:104BF000281981B23846FBF7A1FEFBF782FE00269A
:104C000007E004FB0A603BF81000FE490880701CB6
:104C100086B200988642F4DB601C84B25445E7DB20
:104C2000BDE8F88F2DE9FF4F84B081468A46002009
:104C3000039002900698A0EB09050798A0EB0A06DE
:104C4000CDF80490CDF800A0002D01DD012705E08E
:104C50000DB9002702E04FF0FF376D42002E02DD54
:104C60004FF0010806E016B94FF0000802E04FF0DF
:104C7000FF387642B54201DD2C4600E034464FF065
:104C8000000B21E0009A91B2019A90B2FCF743F92F
:104C90000398284403900298304402900398A0425D
:104CA00005DD0398001B0390019838440190029899
:104CB000A04205DD0298001B02900098404400903D
:104CC0000BF101001FFA80FB601C8345DADD08B0A0
:104CD000BDE8F08FF0B504460D4616461F462B463C
:104CE000324629462046FFF79DFF3B46224629468D
:104CF0002046FFF797FF3B46324639462046FFF7EE
:104D000091FF3B46324629463046FFF78BFFF0BD08
:104D10002DE9F04306460F46904600244546032001
:104D2000A0EB48093CE07A1B91B2321990B2FCF733
:104D3000F2F83A1B91B2721990B2FCF7ECF83A19FA
:104D400091B2721990B2FCF7E6F87A1991B2321961
:104D500090B2FCF7E0F87A1991B2321B90B2FCF7EE
:104D6000DAF83A1991B2721B90B2FCF7D4F87A1BB8
:104D700091B2321B90B2FCF7CEF83A1B91B2721B83
:104D800090B2FCF7C8F8641CB9F1000F03DAA00078
:104D9000801D814404E0601B80000A3081446D1E48
:104DA000AC42C0DDBDE8F0832DE9F84F05460F4663
:104DB00090461E4600979448B0F80090A8F1200055
:104DC00000F0FF080A9800284ED1002449E00C2E7C
:104DD00007D108EB48008D4901EB800010F804A0D2
:104DE00004E08B4800EB081010F804A04FF0000B13
:104DF00031E01AF0800F03D08348A0F8009003E060
:104E0000844800888049088039462846FCF783F8A2
:104E10004FEA4A604FEA106A781C87B27E480088E1
:104E2000A84204DC7848A0F80090BDE8F88F00980C
:104E3000381AB0420BD1009F681C85B276480088B2
:104E4000A84203DC7048A0F80090EEE706E00BF102
:104E5000010000F0FF0BBBF1080FCADB00BF601CB4
:104E6000C4B2B442B3DB44E0002440E00C2E07D1CE
:104E700008EB4800654901EB800010F804A004E04D
:104E8000634800EB081010F804A04FF0000B28E076
:104E90001AF0800F03D039462846FCF73CF84FEA59
:104EA0004A604FEA106A781C87B25B484088A84283
:104EB00003DC5548A0F80090B7E70098381AB042D4
:104EC0000BD1009F681C85B253480088A84203DCC0
:104ED0004D48A0F80090A8E706E00BF1010000F0B3
:104EE000FF0BBBF1080FD3DB00BF601CC4B2B442A0
:104EF000BCDB4548A0F8009000BF96E710B502461D
:104F0000012000E050430B00A1F10104E1B2F9D10E
:104F100010BD2DE9FF4F81B0074691461E460E9DFC
:104F20004FF0000A002439E0301B401EC1B20A20B5
:104F3000FFF7E4FFB9FBF0F00A21B0FBF1F201FB4F
:104F40001208BAF1000F16D1701EA04213DDB8F19D
:104F5000000F0ED10020AB4605EBDB71491001FBC1
:104F60000471009088B22B4620220299FFF71CFFA3
:104F700012E04FF0010A0020AB4605EBDB7149104F
:104F800001FB0471009088B208F13001CAB22B46CF
:104F90000299FFF709FF00BF601CC4B2B442C3DB33
:104FA00005B0BDE8F08F2DE9FF4F82B0064692466E
:104FB0001F46DDE90F480020019000255BE0781BCB
:104FC000401EC1B20A20FFF799FFBAFBF0F00A2198
:104FD000B0FBF1F201FB12090198A8BB781EA842B0
:104FE00035DDB9F1000F30D118F0800F1CD008F07A
:104FF0000100A34604EBDB71491001FB0561009041
:1050000088B20BE00008006C1A000020EE240108B2
:10501000622901081C0000201404002023463022CD
:105020000399FFF7C1FE0EE008F00100A34604EB70
:10503000DB71491001FB0561009088B223462022F4
:105040000399FFF7B1FE14E001E00120019008F0A0
:105050000100A34604EBDB71491001FB05610090E0
:1050600088B209F13001CAB223460399FFF79CFECA
:1050700000BF681CC5B2BD42A1DB06B0BDE8F08F21
:105080002DE9F84704460D4690469946DDE9096743
:1050900004F0FF0A08EB04001FFA80F809EB050092
:1050A0001FFA80F916E0444502DB5446A81985B280
:1050B0004D4500DB14E0002000903A783346294645
:1050C0002046FFF771FE304606EBD07104EB61011C
:1050D0008CB27F1C38787E2802DC38782028E2DA0F
:1050E00000BFBDE8F887000070B50546002405E064
:1050F000601CC4B2C82C01DD002070BD02217748BD
:1051000002F0ADFA0028F3D02946744802F054FAB0
:10511000002405E0601CC4B2C82C01DD0020ECE7CF
:1051200001216E4802F09BFA0028F3D06B4802F090
:1051300045FAC0B2E1E700B587B0012141F20400B1
:1051400002F0D6F8E020ADF8180018208DF81B000A
:1051500003208DF81A0006A9614801F013FEE02132
:105160005F4801F0BAFE0020ADF804004FF48270F1
:10517000ADF806000020ADF808000220ADF80A00E6
:105180000120ADF80C004002ADF80E003820ADF85B
:1051900010000020ADF812000720ADF8140001A99E
:1051A000504802F033F901214E4802F0D4F9FF20B3
:1051B000FFF79AFF07B000BD00B587B001210820B6
:1051C00002F096F80121880302F09FF84FF4604046
:1051D000ADF8180018208DF81B0003208DF81A0078
:1051E00006A9414801F0CEFD4FF460413E4801F070
:1051F00074FE0020ADF804004FF48270ADF8060094
:105200000020ADF808000220ADF80A000120ADF83A
:105210000C004002ADF80E001820ADF81000002080
:10522000ADF812000720ADF8140001A92B4802F0D8
:10523000EDF80121294802F08EF9FF20FFF754FF15
:1052400007B000BD10B50446244800884FF6C7716A
:105250000840224908800846008820430880012130
:105260001E4802F078F910BD10B504461D480088AC
:105270004FF6C77108401B49088008460088204344
:1052800008800121174802F066F910BD70B5054687
:10529000002405E0601CC4B2C82C01DD002070BDF4
:1052A0000221104802F0DBF90028F3D029460D480E
:1052B00002F082F9002405E0601CC4B2C82C01DDB4
:1052C0000020ECE70121074802F0C9F90028F3D0DB
:1052D000044802F073F9C0B2E1E700000038004072
:1052E0000008014000300140000C014010B50024CE
:1052F0000020DD4908604FF09000FFF7F5FE002028
:10530000FFF7F2FE0020FFF7EFFE0020FFF7ECFEB4
:10531000FF20FFF7E9FE44EA0024FF20FFF7E4FE48
:1053200004430120D149C1F8B001204610BD08B5A1
:1053300001214FF4947001F0DBFF4FF48050ADF881
:10534000000010208DF8030003208DF8020069464C
:10535000C74801F017FD4FF48051C54801F0BDFD6D
:105360000420ADF800006946C24801F00BFD04219D
:10537000C04801F0B2FD8020ADF800006946BE488B
:1053800001F000FD8021BC4801F0A7FDFFF714FFEC
:105390000020FFF757FFFFF7A9FFB849088008BDB5
:1053A00010B500240020B04908604FF00500FFF759
:1053B0009BFEFF20FFF798FE04460120AB49C1F891
:1053C000B001204610BD10B504460020A649086073
:1053D0004FF00100FFF788FE2046FFF785FE012011
:1053E000A249C1F8B00110BD10B500209E49086067
:1053F0004FF00600FFF778FE01209C49C1F8B0018C
:1054000010BD10B50020984908604FF00400FFF768
:105410006BFE01209549C1F8B00110BD2DE9F041A6
:1054200006460C46174600208F4908604FF00300DF
:10543000FFF75AFEC4F30740FFF756FEC4F30720F8
:10544000FFF752FEE0B2FFF74FFE002505E0FF2018
:10545000FFF74AFE7055681C85B2BD42F7DB01209C
:1054600081490860BDE8F08110B500BFFFF798FFE3
:1054700010F0010FFAD110BD2DE9F04106460C469F
:105480001746FFF7B1FF0020774908604FF0020090
:10549000FFF72AFEC4F30740FFF726FEC4F30720F8
:1054A000FFF722FEE0B2FFF71FFE002504E0705D6B
:1054B000FFF71AFE681C85B2BD42F8DB01206A497D
:1054C0000860FFF7D1FFBDE8F0812DE9F041074604
:1054D0000E461446F0B2C0F58075AC4200DC25469D
:1054E00012E02A4631463846FFF7C6FFAC4200D1EB
:1054F0000BE02F442E44601B84B2B4F5807F02DDA4
:105500004FF4807500E02546EBE700BFBDE8F08171
:1055100010B504462403FFF767FFFFF7A5FF00203F
:10552000514908604FF02000FFF7DEFDC4F307404B
:10553000FFF7DAFDC4F30720FFF7D6FDE0B2FFF76F
:10554000D3FD01204949C1F8B001FFF78DFF10BD1F
:105550002DE9F04781460F4616464FEA1738C7F344
:105560000B0ACAF58054A64200DC344644E04FEAF8
:1055700008314FF480524248FFF750FF002508E001
:105580000AEB05003E49085CFF2800D003E0681CD8
:1055900085B2A542F4DB00BFA54216DA4046FFF70C
:1055A000B7FF002507E019F8050005EB0A01344AAA
:1055B0005054681C85B2A542F5DB4FEA08314FF420
:1055C00080522F48FFF781FF04E0224639464846C3
:1055D000FFF77BFFA64200D10FE008F101084FF072
:1055E000000AA1442744301B86B2B6F5805F02DD75
:1055F0004FF4805400E03446B9E700BFBDE8F087BF
:1056000010B5FFF7F1FEFFF72FFF002016490860E5
:105610004FF0C700FFF768FD01201449C1F8B00141
:10562000FFF722FF10BD10B500200F4908604FF0B2
:10563000B900FFF759FD01200C49C1F8B001032062
:1056400000F0D1FE10BD10B50020074908604FF0F2
:10565000AB00FFF749FD01200449C1F8B001032068
:1056600000F0C1FE10BD0000B08121420080214247
:10567000000C014000140140002001401E000020E9
:105680002204002010B504462046FFF72DFD10BD72
:1056900010B53820FFF7D6FD10BD10B50020FFF77C
:1056A000D1FD10BD08B501214FF4947001F020FE2A
:1056B0004FF48050ADF8000010208DF80300032057
:1056C0008DF802006946FE4801F05CFB4FF4805102
:1056D000FB4801F002FC0420ADF800006946F948DF
:1056E00001F050FB0421F74801F0F7FB8020ADF8F2
:1056F00000006946F44801F045FB8021F24801F0C2
:10570000ECFBFFF759FD0120F049086008BD10B51A
:105710000120EE4908604FF0FF00FFF7B3FF10BD16
:1057200010B5002400BFFF20FFF7ACFFFF2801D118
:10573000002010BD641C6FF07F408442F3D3012031
:10574000F7E710B50020E1490860FFF7E9FF08B965
:10575000002010BDFFF7DBFF0120FAE770B505461A
:105760004FF6FF7401E0601E84B2FF20FFF78AFF4E
:10577000A84201D0002CF6D10CB9FF2070BD00204A
:10578000FCE770B504460D46FE20FFF7E7FF08B1C1
:10579000012070BD04E0FF20FFF7A6FC2070641C10
:1057A0002800A5F101018DB2F5D1FF20FFF76AFFB6
:1057B000FF20FFF767FF0020EBE770B506460D46B8
:1057C000FFF7AEFF08B1012070BD2846FFF75AFF72
:1057D000FD2D19D0002404E0305DFFF785FC601C2E
:1057E00084B2B4F5007FF7DBFF20FFF74BFFFF200B
:1057F000FFF748FFFF20FFF745FF044604F01F00B6
:10580000052801D00220DFE70020DDE72DE9F04187
:1058100005460C4617464FF00008FFF778FFFFF7E4
:1058200090FF10B1FF20BDE8F08145F04000FFF788
:1058300029FF200EFFF726FFC4F30740FFF722FFE2
:10584000C4F30720FFF71EFFE0B2FFF71BFF384647
:10585000FFF718FF0C2D02D1FF20FFF713FF4FF0C9
:105860001F0800BFFF20FFF70DFF064616F0800F50
:1058700006D05FEA0800A8F1010101F0FF08F1D1AC
:105880003046D0E770B50546012200210A20FFF717
:10589000BDFF044624B910212846FFF772FF0446D5
:1058A000FFF735FF0CB1012070BD0020FCE770B59B
:1058B0000546012200210920FFF7A8FF044624B96C
:1058C00010212846FFF75DFF0446FFF720FF0CB1CB
:1058D000012070BD0020FCE77FB56846FFF7E7FFB9
:1058E00010B1002004B070BD9DF8000000F0C000B1
:1058F000402809D19DF809009DF8081000EB01200F
:10590000401C84B2A50220E09DF8050000F00F00C5
:105910009DF80A1000EBD1109DF8091001F0030169
:1059200000EB4100861C9DF8080080119DF80710CF
:1059300000EB81009DF8061001F0030100EB8120CF
:10594000441CA6F1090004FA00F52846CAE7F8B598
:10595000FFF7A8FEFFF79CFE002504E0FF20FFF7FD
:1059600091FE681C85B20A2DF8DB142600BF952233
:1059700000210846FFF74AFF0446012C04D03000FE
:10598000A6F101018EB2F2D1002051490870012C1C
:105990004AD187224FF4D5710820FFF737FF01283D
:1059A00047D1002506E0FF20FFF76CFE0DF805004B
:1059B000681C85B2042DF6DB9DF80200012879D120
:1059C0009DF80300AA2875D14FF6FE7600BF01228C
:1059D00000213720FFF71AFF012291072920FFF746
:1059E00015FF044624B13000A6F101018EB2EED1BC
:1059F000002E5FD0012200213A20FFF707FF002888
:105A000058D1002506E0FF20FFF73CFE0DF8050009
:105A1000681C85B2042DF6DB9DF8000010F0400FE5
:105A200003D006202A49087044E004202849087061
:105A300040E0012200213720FFF7E8FE012200218B
:105A40002920FFF7E3FE0446012C17DC0220204941
:105A500008704FF6FE7600BF012200213720FFF7C5
:105A6000D5FE012200212920FFF7D0FE0446BCB15B
:105A70003000A6F101018EB2EED111E001201449EF
:105A800008704FF6FE7600BF012200211046FFF796
:105A9000BDFE044624B13000A6F101018EB2F3D15F
:105AA0002EB1012251021020FFF7B0FE10B10020EC
:105AB00007490870FFF72BFEFFF7EFFD044809E0E8
:105AC000000C014000140140002001408881224266
:105AD00020000020007808B10020F8BD0CB120465D
